:10000000181F0220513C0200753702003D3C0200DF
:100010003D3C02003D3C02003D3C02003D3C0200F4
:10002000000000000000000000000000253D02006C
:100030003D3C020000000000D13F02003D3C0200B8
:100040008D4002008D4002008D4002008D40020074
:100050008D4002008D4002008D4002008D40020064
:100060008D4002008D4002008D4002008D40020054
:100070008D4002008D4002008D4002008D40020044
:100250008D400200750803008D4002008D400200B1
:100260008D4002008D400200A50803008D40020071
:100270008D4002008D4002008D4002008D40020042
:100280008D4002008D4002008D4002008D40020032
:100290008D4002008D4002008D4002008D40020022
:1002A0008D4002008D4002008D4002008D40020012
:1002B0008D4002008D4002008D4002008D40020002
:1002C0008D4002008D4002008D4002008D400200F2
:1002D0008D4002008D4002008D4002008D400200E2
:1002E0008D4002008D4002008D4002008D400200D2
:1002F0008D4002008D4002008D4002008D400200C2
:100300008D4002008D4002008D4002008D400200B1
:100310008D4002008D4002008D4002008D400200A1
:100320008D4002008D4002008D4002008D40020091
:100330008D4002008D4002008D4002008D40020081
:100340008D4002008D4002008D4002008D40020071
:100350008D4002008D4002008D4002008D40020061
:100360008D4002008D4002008D4002008D40020051
:100370008D4002008D4002008D4002008D40020041
:100380008D4002008D4002008D4002008D40020031
:100390008D4002008D4002008D4002008D40020021
:1003A0008D4002008D4002008D4002008D40020011
:1003B0008D4002008D4002008D4002008D40020001
:1003C0008D4002008D4002008D4002008D400200F1
:1003D0008D4002008D0803008D4002008D40020018
:1003E0008D4002008D4002008D4002008D400200D1
:1003F0008D4002008D4002008D4002008D400200C1
:100400008D4002008D4002008D4002008D400200B0
:100410008D4002008D4002008D4002008D400200A0
:100420008D4002008D4002008D4002008D40020090
:100430008D4002008D4002008D4002008D40020080
:100440008D4002008D4002008D4002008D40020070
:100450008D4002008D4002008D4002008D40020060
:100460008D4002008D4002008D4002008D40020050
:0C0470008D4002008D4002008D40020013
:10048000054B00221B78826001330260034A426000
:10049000C371FF2303727047E082012080010800CE
:1004A000064A074B02604FF426729B78828008222E
:1004B000C371002382710372704700BF4F5E010059
:1004C000E0820120064A074B02604FF44472DB7859
:1004D00082800822C371002382710372704700BFBB
:1004E000C95B0100E0820120064A074B02604FF41D
:1004F000B072DB7A82800822C371FF23827103729B
:10050000704700BFD9550100E08201202DE9F34179
:10051000C41D0028064624F007040CBF0020204616
:1005200000F07CFC071E04DA6FF00B0002B0BDE89F
:10053000F081374DE988A88803316B7A03302A7A35
:1005400089B280B210F076FF0028EDDB3C44A97838
:10055000EB78002E04F10304194424F0030400FB9B
:1005600001F10CBF0020204600F0DEFD20440EB952
:100570000028D9DBEA7A0446B2B1EB7B697C1344EC
:100580001944FF29D0D80330002EAA89C9B220F01F
:1005900003040CBF0020204600F038FE0028C3DB17
:1005A00004440EB9002CBFDB012000F02DFCB0B1DB
:1005B000A97BA1B195F82A3033B340234FF481725F
:1005C0000734002E24F007040CBF0020204603F05F
:1005D00031F90028A8DB04440EB9002CA4DBAB7A67
:1005E000FBB1EB7AB3B10734002EA97A24F00704EB
:1005F0000CBF0020204607F065F8002894DB044477
:100600007EB9002C0DDA8FE725232822D8E700BF1A
:10061000E0820120012000F0F7FB10B1AB7B002B42
:10062000E1D1734B1B6893B1A97D81B10334002ED6
:10063000EA7D24F003040CBF0020204698470028E0
:10064000FFF672AF044416B9002CFFF66DAF694B8C
:100650001B688BB1297C79B10334002E24F003048C
:100660000CBF0020204698470028FFF65DAF0444E9
:1006700016B9002CFFF658AF5F4B1F68B7B1697C05
:10068000A1B10334002E2B7D24F0030408BF002009
:10069000009318BF2046EB7CAA7CB8470028FFF6E1
:1006A00043AF044416B9002CFFF63EAF072000F01C
:1006B000ABFB98B1A97D89B10334002E2A7E24F0CA
:1006C00003040CBF0020204600F08EFE0028FFF639
:1006D0002BAF044416B9002CFFF626AFB6FA86F706
:1006E00095F823007F09A0B103346B7FA97E24F025
:1006F000070419443B4644F00404C9B2224600F002
:10070000B3FE0028FFF610AF044416B9002CFFF624
:100710000BAF95F8241000294CD004F10708002EE7
:10072000EA8C28F007080CBF0020404610F096FE27
:10073000041EFFF6F9AE4444002E3ED1002CFFF615
:10074000F3AEA97F002945D095F82230002B41D087
:100750002A8C0734002E02F1240224F007080CBF73
:100760000020404692B210F079FE0028FFF6DCAE81
:10077000404416B90028FFF6D7AE03302B7FA97E80
:1007800020F0070019443B4640F0040495F822008D
:10079000C9B2224600F05AFE0028FFF6C5AE044456
:1007A00086B9002CFFF6C0AEEB6AF3B1C6B1EC62BD
:1007B0000020BBE6002EC4D08846E98C40460DF0F0
:1007C000B1FABEE72A8C4046A97F083292B20DF0FA
:1007D000AFFAE9E7002EE7D0002211461046F6E70F
:1007E00028343FF5A1AE2046A0E6002EE0D1FAE77E
:1007F0003C90012040900120449001201FB572B62A
:10080000194B1C6BECB9BFF34F8F1849184BCA68D2
:1008100002F4E0621343CB60BFF34F8F00BFFDE7EC
:10082000B2FBF6F22B465D1C002AF9D1DBB203F1D4
:1008300010056D4405F80C2C0A2233B901A8A04715
:10084000E1E7024600230A26EDE7013BDBB203F1B4
:1008500010050DEB0506B0FBF2F502FB150030307C
:1008600006F80C0C2846E8E7E082012000ED00E0E5
:100870000400FA0513B5124C68462389ADF8003020
:10088000E388ADF80430A388ADF8023004F08EFFA1
:1008900018B1FA219C20FFF7B1FF207D04F0DCFFA6
:1008A00008B1FD21F6E7E07C04F0D0FF08B1FE219D
:1008B000F0E794F829000BF04BFE02B010BD00BF2A
:1008C000E082012070B50546002855D00FF0F6F9FA
:1008D00018B94FF0FF34204670BD0DF027FFB0F57A
:1008E000FA7FF6D8264C012625630025284684F891
:1008F0003450257084F82A50E5620DF0B5F91A22BB
:10090000294604F10F0015F0F2FE1B2308210322F3
:10091000A3802846E3800223A1721F216372E3753E
:10092000F72322722384FB23A2734922E3840A2340
:10093000A1812946E27484F82930A670E670E67237
:10094000A674267603F032FC2A463146304603F080
:10095000FFFB044620B140F2B5319C20FFF74EFF6B
:10096000014603F011FCEFF3108572B600F0A2FD12
:10097000002DB0D162B6AEE76FF01504ABE700BF53
:10098000E082012038B51446002840F0EE80784D12
:1009900095F83430032B00F0E58019B312B96FF0ED
:1009A000150038BD0139172900F2DF80DFE811F0AA
:1009B000180029002C0042006C00750094004800CB
:1009C00078007B008E004E005400620067009A00A1
:1009D0009D00AC00AF00B200A300B500B900D2008A
:1009E0001378AB700020FFF791FD0028B7BF0123FB
:1009F00002236FF00B0085F83430A8BF85F834303F
:100A0000CFE71378EB70EDE71379002BC7D053795C
:100A1000002BC4D01288FB2AC1D863881B3B9BB231
:100A2000E02BBCD81A2ABAD92368A2886B60514B34
:100A30009A80D7E71378EA7B9342B0D3EB72D1E781
:100A40001378EA7A9342AAD8EB73CBE71378EA7A61
:100A50009342A4D86B74C5E71378002B9FD05378CA
:100A6000013BDBB2F82B9AD8138892786B82424B09
:100A70009A70B7E7107868750BF028FDB2E7137825
:100A8000002B8CD02B76ADE7012000F0BDF9237848
:100A900008B1012B83D9AB73A4E71388AB81A1E71D
:100AA0001378AB759EE7072000F0AEF918B92378EC
:100AB000012B7FF674AF072000F0A6F918B1237858
:100AC000002B3FF46CAF2378EB758BE71378082B82
:100AD0003FF665AF2B7485E71388FF2B3FF65FAFBA
:100AE000AB727FE713786B767CE713780E2B3FF6BB
:100AF00056AFAB7676E72368204AC5F81E306368A8
:100B00005360238913816DE71378EB766AE71378D6
:100B10006B7767E713782B7764E7137885F82830CD
:100B200060E703F00FFB98B1007900F001026178F3
:100B3000207803F00DFB00287FF433AF6378012B9E
:100B40007FF650AF0DF096F800287FF44BAF26E704
:100B50000246ECE713785A1E092A3FF620AF85F8C3
:100B600029303FE74FF0FF301BE76FF02C0018E70C
:100B7000E0820120E4820120F2820120FE82012035
:100B8000F8B50D46064630B329B311F0070422D15B
:100B9000124F97F83430012B02D16FF00B00F8BDE3
:100BA000032B02D14FF0FF30F9E700F0B9FC002829
:100BB000F8D02846FFF7AAFC0028EEDB15F012FA61
:100BC0003046F96A04F0D6FEFFF754FE03232046B0
:100BD00087F83430E3E76FF01500E0E7E0820120AA
:100BE00010B5074C94F83430032B03D104F0DAFE2F
:100BF00005F052FD10F075FD002084F8340010BDA2
:100C0000E082012008B504F061FE03490320BDE83D
:100C1000084000F0F1B800BFE904000008B504F096
:100C200069FE03490220BDE8084000F0E5B800BFB6
:100C3000C504000008B504F07FFE0549012000F05E
:100C4000DBF804490020BDE8084000F0D5B800BF3B
:100C500081040000A1040000074B4FF0FF3141F672
:100C6000FF72C3E9001205490022C1E900221F21D9
:100C7000C3E90212704700BF600000201883012002
:100C80003F280CD801380B4BC0F3421200F01F0074
:100C900053F8223023FA00F000F001007047FF28DB
:100CA00006D04038044BC0F3421200F01F00EFE7BB
:100CB000012070476000002018830120074B014687
:100CC000006849681A4603C240F48C2200201A606A
:100CD00041F0107242F4FF625A60704760000020D9
:100CE0000246034B0068516803C30020704700BFF1
:100CF000188301200246034B0068516803C300209B
:100D0000704700BF680000200138064BC0F3421254
:100D100000F01F0003EB82039B6823FA00F000F051
:100D200001007047600000200A8870B595B2C67C4B
:100D3000C2F30E020488023602F118033444C35A87
:100D4000A4B233442344013BB3FBF4F303FB04227A
:100D5000438892B29342044B8BBF2B40AB43134367
:100D60009BB20B8070BD00BF0080FFFF4A1E062AA9
:100D700008B50346084604D84FF4D1711520FFF793
:100D80003DFD094A914202D940F2A311F6E711B99B
:100D900003B1196008BD2BB11B680022C3E9012112
:100DA0001A1D1A600430F5E7FAFFFF7F10B5114BEA
:100DB00000EB41041A786389B3FBF2F303FB0223CF
:100DC000013A1A44B2F5706F0279807828BF002387
:100DD0001A440B18B2FBF0F100FB11215B1AB3FBB4
:100DE000F0F100FB113313446FEA43436FEA5343BE
:100DF000638110BD20830120024B03EB8003596007
:100E0000704700BF20830120034B03EB8003586829
:100E1000003818BF01207047208301202DE9F04FD2
:100E200010F0070A85B0054604D040F26F11172074
:100E3000FFF7E4FC534F04464FF0010B07F1540653
:100E4000B146B04657F8043B8DF80BA03BB101A862
:100E500098479DF80A30082B01D9F521E7E79DF85E
:100E60000B1041BB05B131604F4506F10406E9D1D5
:100E7000002D6FD00022DFF810911427964689F8D4
:100E8000002058F827A0013FBAF1000F55D09AF87A
:100E900004609AF802C0FF2E60D039460023481C37
:100EA00038D19C44BCF1FF0F3FD90AB189F800E06A
:100EB0004FF49A71BBE79DF80AC04B1D60465A007B
:100EC00004EB4303022838BF0220441E404223445F
:100ED000BDF808406444CCF1000C0340013C04EA36
:100EE0000C04B4F5803F02D340F205119FE775B1C1
:100EF0009A1A32609170148082F803B09DF80C0049
:100F0000107101984FEA104C1081A2F806C004FB42
:100F10000134A9E758F8210028B190F804B0B3458E
:100F200004BF80781B180139B9E7DBB2E6458AF8BF
:100F300004303CBF5FFA8CFE01227B1CA1D10AB1B8
:100F400089F800E0142640F6FF6A58F82670B7B911
:100F5000013EFAD2601B05B0BDE8F08F0023E5E743
:100F600007EB410309F101093846A3F80AA0FFF78E
:100F70001DFF5FFA89F1BB788B42F1D8E8E74FF0AB
:100F80000009F6E7248301202083012038B54FF6BD
:100F9000FF7302460380184B03EB8103986DA8B1E1
:100FA00084780379B3FBF4F104FB1133DBB2194607
:100FB00000EB4105B5F90A50002D0EDB0131B1FB04
:100FC000F4F504FB1511C9B28B42F1D1002038BDF4
:100FD0006381BDE8384010F009BA00EB4104638931
:100FE000C3F30E031380C278002AF1D14FF4E571E8
:100FF0001720FFF703FC00BF208301201C4B03EBED
:10100000810370B59C6D054644B3030404D54FF4C9
:10101000EC711720FFF7F2FB0146204610F0C9F9EA
:10102000FF28014604D02046BDE8704010F0DEB92C
:10103000A078B5FBF0F300FB1353DBB219460A1D91
:1010400004EB4206B6F90260002E09DB0131B1FB68
:10105000F0F200FB1211C9B28B42F0D1002070BD3A
:101060008B4201D00023E37004EB42025580DAE7A3
:1010700020830120094B03EB8103014610B59C6DD1
:10108000204610F096F9FF28014604D02046BDE81E
:10109000104010F0ABB9002010BD00BF208301202C
:1010A000F8B5104B074603EB810301469C6D2046C3
:1010B00010F07FF9FF28054611D0E288238953EA12
:1010C000024606D00146204610F090F90146384607
:1010D000B04720462946FFF769FE0020F8BD0520ED
:1010E000FCE700BF2083012038B50E4B044682790F
:1010F00003EB8203986D08B9052038BD8278E17949
:101100009142F9D24B1CE37100EB41035D89B3F9C5
:101110000A30002BF3DBA58010F068F92060002076
:10112000EBE700BF2083012070B5044610F00300F8
:101130000E4603D04E211820FFF760FBFFF716FE86
:10114000054624B1034831460460FFF70FFE2846E8
:1011500070BD00BFCC8301202DE9F14FDFF870B0E6
:101160001E4607460D46DBF8003090469DF828A045
:101170009DF82C901BB960211820FFF73FFB5246C9
:10118000092140460FF099FF4A4684B209213046B2
:101190000FF093FF81B2DBF80000214410F0DDF87E
:1011A000386018B9286001B0BDE8F08F0444534698
:1011B000414609222C6038680FF042FF4B46092255
:1011C0003146286801B0BDE8F04F0FF039BF00BFCD
:1011D000CC83012070B50E4604460FF081FF054612
:1011E00030460FF07DFF044B2A1821461868BDE8F1
:1011F000704010F0D7B800BFCC830120024B1868B4
:1012000008B110F09EB87047CC8301201F2AF8B5B2
:10121000044613460ED89200033222F00303B3F5BE
:10122000803F2DD2184DACB1A00710D06821092005
:10123000FFF7E4FAFF2B4FEA420204D9FF339A4248
:10124000A8BF1A46E8E77C2AB8BF7C22E4E72970E9
:101250006C602B8122F0030228230127120403FB78
:1012600001F06B680025120CEEB2B14200D8F8BD57
:1012700014B126181F705E60104401352833F3E75F
:101280004FF0FF30F3E700BFD0830120154A002163
:1012900070B553681578C8B2854203D8BA210920C1
:1012A000FFF7ACFA1C461846013114F8286B0EB94A
:1012B0002346F0E70021997001241289996103F116
:1012C00026055C709208D96103F11E04596824F860
:1012D000022FA54243F8041F1144F8D100234361B3
:1012E000037070BDD08301200A4B1B89B3F5FF7FCB
:1012F0004FEA930006D25A089B1A9BB2984238BF15
:1013000018467047B3F5EE6F01D8FF22F4E740F2BC
:101310007263F3E7D08301204B782DE9F041064654
:101320000C4602F0040702F0FB05E3B1A5BBFF2366
:10133000A3707B0804EB57073A7D032A02D1022DE4
:1013400018BF0133E2180121117503F10C010022CD
:1013500004EB830324F811205B68A27030463360ED
:10136000B280BDE8F081002DE1D1012301F11E0220
:101370008D6120464B7004F1260C1A4BCD611B8900
:1013800049689B0822F8023F944540F8041F19441D
:10139000F8D100236361CAE7D1F804801422002148
:1013A000A018617015F0A3F90E4B1B89B3F5FF7FF0
:1013B0000FD25A089B1A9BB208EB0301C4F80480B1
:1013C0002384A1606284C4F80C80A3842161E28438
:1013D000ADE7B3F5EE6F4FF0FF02EBD940F2726369
:1013E000EAE700BFD08301202DE9F84305460C460B
:1013F000F720052191460FF060FE061E21DB1DB986
:1014000006FB04F0BDE8F88315F0030703D098212C
:101410001920FFF7F3F9DFF83080C8F81050A8F86A
:101420001460BBB29C42EBD9B8F814504B46D8F8C4
:1014300010000522F72107FB050001370FF000FE21
:10144000EFE74FF0FF30DDE7E483012007B5CDE99A
:1014500000230B4603490246081D10F01CF903B097
:101460005DF804FBFC83012013B5064CCDE9002395
:101470000B46024604F1080104F10C0010F00BF9D0
:1014800002B010BDFC83012008B54B1E032B03D90D
:1014900023219020FFF7B2F90028054A0CBF05234D
:1014A0000C2303EB8103053323F00103137008BD04
:1014B0000C840120114B01224FF0FF3000215A60B3
:1014C000C3F80803C3F80015C3F804255A6040F6B2
:1014D000FE72C3F808034020C3F8001503F570330B
:1014E0000749C3F80825C1F88800BFF34F8FBFF341
:1014F0006F8FC1F88801C3F8082570470060045059
:1015000000E100E002680020014B1A60704700BF54
:1015100010840120014B1B68184700BF1084012074
:10152000024B1868003818BF012070471084012052
:101530000A4606489C2302F8033BC368C1F80330FF
:101540000369536043699360704700BF14840120AE
:10155000024B5A8C02435A845B6A18471484012058
:10156000014B00215B6A18471484012010B5154C0B
:101570000CF010F80CF03AFB208DFFF7F1FF237E02
:1015800063B12246104904F1190052F80C3BE360A4
:1015900063685360A368936012F014FE218DE06AC3
:1015A00006F0E6F9E36AB3F8AA0006F041F8636BC7
:1015B00094F8301094F831009847002384F83830BC
:1015C00010BD00BF1484012031150000034B93F8B7
:1015D00038300BB1FFF7CABF704700BF1484012039
:1015E0002DE9F041DFF8808005460E4608F12C0019
:1015F00010F0F3FE044618B101242046BDE8F08146
:10160000D8F82C3093F8A8704FB1012D07D1B8F855
:1016100022301A0703D598F83930002BECD1012E6F
:10162000EAD8D8F83C30284698470028E4D098F803
:101630003030002BE0D167B9012DDED1B8F822306F
:10164000002BD9D198F84030002BD6D198F84140E2
:1016500007E0002DD1D1B8F822309B07EED598F8DD
:10166000394084F00104C8E71484012070B5204C8F
:101670000646636DE56A63644FF4817394F858001D
:10168000A4F848302B7D95F8211100EB83002EB98A
:10169000FF2803D195F820318B4201D00BF00EFCCE
:1016A0002B7DFBB1E06D0BF09DFEE16D606C0CF0ED
:1016B00023FA66B995F82131033B012BB5F8E430E4
:1016C0008CBF00202820184480B20BF0EFFEB5F844
:1016D000E0000BF0B3FB00200BF026FF022384F8A0
:1016E000383070BD606C0BF07DFE0CF07FFAE0E7E7
:1016F0001484012008B5094B93F83820022A04D03D
:1017000040F257312720FFF779F8DA7A42F00102E8
:10171000DA72BDE80840FFF729BF00BF148401203A
:1017200010B590F86A1086B0D1B9C2880B46059101
:101730000021CDE903110C4991F85840029400F1C1
:1017400090040194C96A91F8A810003918BF0121CA
:10175000009100F1800102200CF0DEF806B010BD0F
:10176000D0E91E23E3E700BF148401202DE9F041F6
:10177000274C06460F4694F83830012B5FFA83F861
:1017800004D040F60C112720FFF738F8E56A2B79D2
:1017900053B1002104202971FFF7DAFEE36A93F8C0
:1017A000A8300BB185F8058094F860308BB92B7A9E
:1017B000052B0ED117490220FFF7CAFEE36A93F802
:1017C000A83033B1E36E1B789A1E5342534184F81C
:1017D00039301EB1BDE8F041FFF7C8BE002FF9D087
:1017E00031463046FFF7FCFE0028F3D12B7DE46A3A
:1017F00013B12846FFF794FF94F821210120B4F893
:10180000E21014F017FC0020BDE8F041FFF72EBFF6
:1018100014840120808401207FB590F86A10D1B92A
:10182000C2880B4605910021CDE90311FB210291ED
:1018300000F1900101910949C96A91F8A810B1FA23
:1018400081F14909009100F1800104200CF064F855
:1018500007B05DF804FBD0E91C23E3E71484012002
:101860001E4A10B5546E41782378C90003F0F30383
:1018700001F008010B438178890001F004010B435A
:10188000C178090103F0EC0301F010010B4301786A
:1018900001F003010B432370B2F870306370022330
:1018A000516EA2F8683004790B786001012C23F0A6
:1018B000200300F0200043EA00030B700CD1D36A30
:1018C00093F8BA2093F8BB30032A03F01F0308BF34
:1018D000002243EA82138B7010BD00BF14840120E4
:1018E000F7B5184C0646656F0DB1E36C23B940F6A9
:1018F000C4012720FEF782FFB4F8503001F0030145
:101900002F466B702B7823F003030B4307F8033B40
:101910003846B4F85020E16C0EF03AFB0DF10202AB
:1019200001A9A06F6564E7640FF001FD01980FF055
:10193000ECFC0122B4F850103060A06F0FF090FC66
:1019400003B0F0BD148401202DE9F04FAC4C87B0FA
:10195000D4F82C8098F8201158B998F8142094F8ED
:10196000583003EB8203FF2B03D198F821318B42CF
:1019700002D0FF200BF0A2FA002304AA02A9A1487A
:1019800004938DF8143084F8603001AB10F01AFD28
:101990000746002845D0029ABDF8043022B940F22B
:1019A00013412720FEF72AFF6266A4F8703003B1C6
:1019B000D31CE366012384F860309DF8133004A83B
:1019C000003B18BF012384F8403098F81330002BF7
:1019D00000F01C81B4F87030002B00F01781FFF785
:1019E0003FFFE06D0BF0FEFC9DF81420E16D003A26
:1019F000606E18BF01220BF095FE18B9616EE06DA4
:101A00000CF004F8B8F8E2000BF018FA01200BF023
:101A10008BFD012384F8883084F8383007B0BDE8A6
:101A2000F08FE66A8DF80300337AADF80600062BD6
:101A300000F2CA80DFE803F004CBA1A1C8B8B80067
:101A400094F87F300DF1060103A8A6F81031ADF827
:101A5000063004F001FA38B1039D2DB1012384F85A
:101A60008030052333729CE0E36A93F85130002BF9
:101A70006BD10DF103020DF10601D4F884000FF0D3
:101A800056FB0546002860D09DF80370FFB1014663
:101A9000D4F884000FF035FC0FF037FCD0F800B01C
:101AA000D0F804A081465BEA0A0348D1002389F8F4
:101AB000003089F8013089F8023089F8033089F85C
:101AC000043089F8053089F8063089F80730BDF808
:101AD0000630002B40D1012333720123002784F804
:101AE0008030BDF806306566A4F8703003B1EB1C99
:101AF000E366727A357A8DF81120022DB27A8DF86C
:101B0000122004D0053D012D8CBF012503258DF841
:101B10001050002F5ED000209DF810308DF813007B
:101B2000032B6BD1E36E1B781B2B67D1012106F1D0
:101B3000BA000BF00BFA01238DF814303DE714F0D6
:101B4000BDFB83457AEB0101B0D2002301222E4D6B
:101B5000ADF806303272C6E79DF803301BB92B8012
:101B6000AB700323B8E72B7803F00303012BF8D005
:101B7000022333720023B375AFE7B6F810310DF1CD
:101B800003020DF10601D4F88400ADF806300FF021
:101B9000CEFA054610B940F2C35102E7012384F89A
:101BA0008030BDF806309EE70DF1060103A804F071
:101BB00053F908B1039D15B940F2D251F1E6012362
:101BC00084F8803006234DE740F2DC51E9E60E4D03
:101BD000002388E7032D02D11B78022B9BD0D4F879
:101BE00084000FF0FCFA38B9032D94D004F050F9BA
:101BF00080F00100C0B28FE701208DE700239BE752
:101C0000148401204084012090840120FFF728FEE5
:101C1000606E0BF0E7FB0BF0E9FF9DF81410606EAF
:101C2000003918BF012114F012FAEBE62DE9F04F4C
:101C3000B04C87B00027804694F83830E56A022B14
:101C4000019105F1A80ACDE9027704D040F6AD1163
:101C50002720FEF7D3FD616C03200B784A780144FE
:101C6000A4F84800E16403EA0001A4F850208DF8CC
:101C70001010C3F3C0018DF81110C3F380018DF86B
:101C80001210C3F30011C3F340138DF813108DF835
:101C90001430B8F1000F00F00C8104A904F12C00FD
:101CA00010F092FB064630B9B4F8501009B3A06F9B
:101CB0000FF0B6FA0746238D9DF8121043F4007317
:101CC000676723856B7A0133DAB203F00103994227
:101CD0004AD12B7A33B3032B6A720CD8012B21D053
:101CE00002A9D4F884000FF044FAA0B940F2D471EC
:101CF000AEE70746DFE7053B012B02D940F2B3719F
:101D0000A6E704F0B7F810B940F2DE71A0E70021B1
:101D10000820FFF71DFCD5E91C32013342F1000217
:101D2000C5E91C320021E36A297293F8A8302BB16F
:101D30006B791BB110206971FFF70AFC238D4FF0FE
:101D4000000B43F4006323852B7DDBB1B4F85030E6
:101D5000C3B10BF069FF0328FBD0022806D1FFF7BF
:101D600005FC07B0BDE8F08FC346EDE750B9AB7A8C
:101D70009DF8112003F001039A4203D1012384F856
:101D80003130ECE7B4F85070E6B19DF81330591ECD
:101D90004B424B4184F84130002F40F0B780002780
:101DA000B946019B002B00F0B8800BF0F3FBB9F1B2
:101DB000000F00F01E819DF8101003A8FFF790FDA2
:101DC0000127C9E0AB7A9DF8112003F001039A4284
:101DD00023D19DF810307FB35A1E012A2CD8238DB1
:101DE00095F8149043F4805323850BF03DF80328B5
:101DF00094F8893007D1B9F1000F0CBF1F221B22C4
:101E0000934228BF1346B4F850209A4208D994F858
:101E1000303043F0100384F830304FF000091EE0FA
:101E2000636F002BF9D094F88A301BB12020FFF7A4
:101E300097FBF2E79DF81030AA7A032B02F101021A
:101E4000AA722CD05A1E012A1DD8002FE5D0C146F7
:101E5000D5E91E32013342F10002C5E91E32626F3C
:101E60009DF81310002A56D1B4F85020B2FA82F22D
:101E70005209012914BF002202F001023746002650
:101E800084F841208DE7002FC7D0002BC5D1D5E9BC
:101E90001E32013342F10002C5E91E32BDE7238D37
:101EA0000120154943F4805328712385FFF750FB27
:101EB000EDE72B7D0BB10BF0D1FE94F88B300133A5
:101EC00084F88B30238D43F48063238595F821318A
:101ED000033B012B12D80AF0C7FF032812D1B4F834
:101EE00050604FF000091B2ECB4694BF0026012600
:101EF000B5E700BF148401206084012004F026FDB2
:101F00000028E8D10026B146B346A8E7238D43F464
:101F10008053238543E70122ABE794F88B1001201F
:101F2000FFF75EFB00287FF440AFEA7C12B1284641
:101F3000FFF772FC002095F82021B5F8E01014F0AE
:101F400079F80020FFF700FDB9F1000F5AD09DF895
:101F5000101003A8FFF7C4FC238D5A0606D44020B6
:101F6000FFF7FEFA238D43F040032385BBF1000FFA
:101F700010D0EB884BB9E36A93F8A8302BB1B4F8D2
:101F80000530B4F80720134304D0B4F80930013306
:101F9000A4F80930B8F1000F3CD0B4F80530013393
:101FA000A4F80530002384F88B301D4805F02EFB83
:101FB000029830B10FF0A9F900220272514604F0E4
:101FC0008DFC039B33B100221A720C2251460398F8
:101FD00004F052FC002F7FF4C2AE238D1B063FF5A8
:101FE000C0AE8020FFF7BCFA238D43F08003238529
:101FF000B7E6002E3FF4E4AE0A49A1F1200010F04C
:10200000E5F9DDE6002EA7D00649A1F1200010F089
:10201000DDF9A1E7B4F807300133A4F80730C4E7CD
:102020004084012060840120064B10B593F83820CD
:1020300002F0FF0422B91C7605F092FC204610BD88
:102040000C24FBE714840120094B0A4A10B51A60DE
:10205000FFF7EAFF20B14FF4B1712720FEF7CEFB66
:10206000054C03F0BBFC606503F0BCFCE06510BDF3
:1020700048900120B422000014840120F8B5794C66
:10208000054694F8386006F0FF0016B909B102B1B0
:1020900023B94FF420712720FEF7B0FB63639DF84E
:1020A0001830616284F88A30E26384F8300084F882
:1020B0008B0084F8310084F888006084208584F8DF
:1020C000400084F8410084F8800084F8390060669C
:1020D000E066A4F870006064E064A4F85000E56273
:1020E0000AF056FF0BF082FD95F928010AF0B4FFC3
:1020F000D5F8D460D5F8CC000AF0B4FF30460BF028
:1021000055F995F825000AF0B7FFB5F8E030622BD5
:1021100003D9B5F8E230622B01D80AF095FEE36AE4
:1021200093F8A860002E40F0858012F0ACFE95F880
:1021300020214D4B4FF47A7153F8223003F5FA7396
:10214000B3FBF1F35233191830460AF0A3FF474BA3
:1021500018680BF031F9D5F8C030C4F88430D5F8E0
:10216000C430A367AB7B243B072B6BD9EB7B243BB1
:10217000072B67D9B5F8F230B5F8F80095F82011BB
:10218000984228BF1846042908BF032111F039FBE3
:10219000034695F8F400984228BF184695F8F030A9
:1021A00080B2984200D3C3B295F8211105F1E8003E
:1021B00084F87F3012F087F895F821112F7D0329DC
:1021C000B5F8FC6008BF042111F01BFB0FB9043007
:1021D00080B2864228BF0646F6B284F8896004F0D1
:1021E000B5FB28B104F0B8FB864238BF0646F6B20C
:1021F00084F8586010F0EDF8E36A93F8A8301BBB40
:10220000EB7C13B12846FFF707FB0120FFF79CFB8F
:10221000002323606360A360EB886380B5F8AA3075
:10222000238095F825302371D5F824310BB1012294
:102230001A60F8BD12F027FE95F8212100F1710116
:10224000012082E71B23AFE72B7D13B12846FFF760
:1022500067FA0120FFF70AFAE36AD3F8F0010BF0FE
:10226000F3F8D5E7148401207CB7030048900120DF
:10227000014B93F88800704714840120054A138DA0
:1022800092F8800003F4805110B113F4C06F00D1B4
:10229000080B704714840120024B93F82900C0F307
:1022A000C000704714840120014B93F88B007047E5
:1022B00014840120F51600002D1C00006D1700008D
:1022C000CD1500000D4B0321186830B50D4690F870
:1022D000A52090F849400132B2FBF5F303EB43032C
:1022E000D31ADAB244FA03F3DB0703D4013911F04D
:1022F000FF01F0D180F8A52030BD00BFA0840120EF
:10230000014B18680FF0AEBAA084012008B50AF09E
:10231000F5F8014B187008BD70000020064B10B492
:102320001C68827C836804F1420194F841005DF8E6
:10233000044B11F0B8B900BFA0840120024B18680B
:102340006C3001F0DFBA00BFA084012038B50F4C1B
:10235000FFF7F4FF656801F08FFA6368286018687A
:1023600020B940F2F5413220FEF748FA0FF036FC72
:1023700010B940F2F741F6E70BF034F800200BF00B
:1023800095F8636804221A7138BD00BFA08401204B
:1023900038B5194D04466B681B79022B04D940F6F9
:1023A000FC013220FEF72AFA2B68027C83F8A42075
:1023B0001A44C168996692F87C2183F878214268B2
:1023C000C3F88820037A022B0ED00AF0E1FD0BF04F
:1023D00091F80AF035F909480AF0EEFF08480AF0CA
:1023E000E5FF08480AF03EFE637C23B12B685B6E74
:1023F0000BB101221A6038BDA084012038330000DF
:1024000055555500D6BE898E2DE9F341494D00231F
:1024100007460E462C686372236DB3F8AA2093F822
:102420002911D3F8C800628111F03DFA2B6820848D
:102430001A6DB2F8D010B2F8D22059849A844FF4B1
:102440007F42DA844FF6FF721A8517B301213046B6
:1024500011F0C9FC33780146D8092C6894F848304B
:1024600004F11402FBB10FF040F9E0B10B686361B5
:102470008B88287B938004F10E0208284BD004F14E
:102480000D0103F081FE88B941F213413220FEF7BD
:10249000B5F96946A86811F09EFBAB6869461878E3
:1024A000C0F38010D9E700236361E2E72C68637B07
:1024B00004F11A0843F0020363734FB3002130465E
:1024C00011F091FC0368C4F81A308388A8F804302E
:1024D0002B68186D93F95810A83003F0A1FF2868F5
:1024E000154911F066FE28681449036D2A30B3F8C7
:1024F000AA20A0F80920DB7DC37211F063FE02213F
:10250000286801F0F3FCFFF719FF02B0BDE8F08185
:1025100004F17800D6E794F87E306373A36FC4F8B3
:102520000E30B4F87C3093800023C4F81A30E38373
:10253000CEE700BFA0840120471701000317010068
:1025400008B5074B93F900207F2A04D140F29B3154
:102550003220FEF753F902707F221A7008BD00BFC7
:102560007000002010B504788EB004F00F0404A9A8
:1025700022460FF05AFBFFF7C9FE042C33D11B4C47
:10258000059A2368107893F8781088422BD15078F8
:1025900093F87910884226D1907893F87A1088427F
:1025A00021D1D07893F87B1088421CD1107993F810
:1025B0007C10884217D1517993F87D20914212D135
:1025C0009DF8212093F87E309A420CD10DF10F0036
:1025D000FFF7B6FF9DF90F3004A90093237C227BFF
:1025E00060680FF00DFB03200EB010BDA084012029
:1025F0000D4A536810B51979022904D841F2BC413B
:102600003220FEF7FBF81979082902D941F2BD41C1
:10261000F6E71B79526903F180439268033BBDE8FA
:10262000104052F823301847A084012010B5054C03
:10263000637B2BB10AF05EFF0AF002F8002363739C
:1026400010BD00BFA084012010B5054C23792BB12B
:102650000AF050FF09F0F4FF0023237110BD00BF02
:10266000D88B012010B5094CFFF7E0FF0122636809
:102670001A7100232268A2F8793182F87B31FFF7C2
:102680005DFE2068BDE810400FF061BEA08401200F
:1026900008B5FFF7CBFF044B00209968FFF7B4FEA5
:1026A000BDE80840FFF72CBEA0840120062938B5FC
:1026B0001D469DF8104019D908291BD802B18CB1CC
:1026C00043689BB912B94378DB0615D40B4B5B68A2
:1026D00018680FF0A4FA00B134B92DB903F02AFD3F
:1026E00000F00104204638BD0120F9E79DF81440B0
:1026F0002C43F7E70024F5E70124F3E7A084012049
:1027000038B50D1E04460CBF05200320104403F00D
:1027100081FD094B587370B15DB9033C012C8CBF2E
:102720005024552409F066FF2046BDE838400AF0E1
:10273000D5BE4024F6E738BDA0840120F8B53D4C55
:10274000FFF7FCFD656801F097F86368286018687A
:1027500020B940F252413220FEF750F80FF03EFA15
:10276000054610B940F25441F5E7236893F8A630C6
:102770006BB123681A6D93F8A710C3F8102193F872
:1027800054200A4383F85420002283F8A6202068AE
:1027900090F8A430034493F87C71636880F87871F2
:1027A0001A7952B11B79012B07D000210FF018FCC8
:1027B00018B9BDE8F840FFF755BF23681E4A93F8E3
:1027C000A530D05C0AF058FC236893F8A420134489
:1027D00093F87C61022E2BD004D8012E05D040F254
:1027E000F771B8E7F31E012BF9D801F03FF8314635
:1027F0000AF064FB28460AF0F5FD314601200AF094
:102800005DFC7B1E2A46384659425941FFF778FF46
:10281000626808210023517121732168D3801372EB
:10282000E37381F89530A373237403231371F8BD08
:102830000D20DCE7A084012093B40300124A10B5F8
:10284000536800B931B9184601F0AEF8BDE8104040
:10285000FFF708BF1979082904D841F28C413220CA
:10286000FDF7CCFF19790C2902D941F28D41F6E729
:102870001B79526903F180435268093BBDE810405F
:1028800052F82330184700BFA0840120054B1A6876
:1028900092F85420920703D05B68186801F016B8CC
:1028A00098687047A084012070B5304D06466B686B
:1028B0001A79032A0BD01A79042A08D0FFF7E6FF09
:1028C000044640B941F2C4313220FDF797FF186841
:1028D0000FF084F9F4E72B6893F8543013B941F200
:1028E000CA31F1E776B111F02AFB30B16B681A7981
:1028F000022A0ED841F24A31E6E7204611F03AFBAF
:102900000028F3D16B681A79022A17D841F2AA314C
:10291000DAE71A79082A02D941F24B31D4E71B7958
:1029200020466A6903F180431269033B52F8233061
:1029300098470C2812D941F2DD31C5E71A79082AE7
:1029400002D941F2AB31BFE71B796A6903F18043D9
:102950005269033B52F823309847EAE76B69DB681A
:10296000BDE8704053F82030184700BFA084012014
:1029700007292DE9F043064687B00F469046456883
:10298000634C23D11DBB002A49D1D4E9001091F832
:10299000543013F0030218BF012213F004038271B4
:1029A00003D033785A1E53425341C37191F8943087
:1029B0004BB12368D3F89000503012F023FA10B9CD
:1029C000636801221A7207B0BDE8F0833DB329465F
:1029D000707C0EF08AFE072F814661D1637B63B164
:1029E00058B1B8F1000F52D0656810F091FE6368DD
:1029F00068715B7923730123A3736368587908288E
:102A000055D17168707C12F0F3F9626805467168FF
:102A10000532707C03F094FB6368002859D023686A
:102A200093F8540010F003000AD093F84A30394666
:102A3000019530466268927900924246FFF736FE71
:102A400062682368907193F8540010F0040009D074
:102A500093F84B30394601953046D2790092424680
:102A6000FFF724FE2B4B65681B68E8711BB14146DC
:102A700030469847287272686AB3717C236883F87D
:102A80007E10116899679288A3F87C2023E0236860
:102A900093F878110129A7D1284603F08DFB6073C4
:102AA000637B002BA9D0B9F1000FA6D09CE704AA44
:102AB0000DF10F0103F068FB20B940F6A53132207B
:102AC000FDF79CFE04A99DF80F0012F091F9054650
:102AD000A5E7D88018726268137AB3B9D388003B2F
:102AE00018BF0123B06800283FF46DAF072F7FF4B3
:102AF0006AAF517908293FF466AF002B3FF463AF0A
:102B000003F078FB0123E3735DE70123EAE700BFED
:102B1000A08401204C9001202DE9F04F044689B09B
:102B2000062900F2C580DFE811F06000E700070029
:102B3000C300C300C30026006E4D0AF047FB2F6898
:102B400097F85430980714D06E68B3798BB10DF1B3
:102B50001F00FFF7F5FC9DF91F300222214602936A
:102B600030462B7B0193FF23009307F142030FF0C4
:102B700037F803201FE05F4D6E68B379002B00F03B
:102B800097802F6897F85420910717D50DF11F00F3
:102B9000FFF7D6FC9DF91F303046062202932146EE
:102BA0002B7B0193FF23009307F142030FF018F8EA
:102BB000002309202B7409B0BDE8F08FD30777D527
:102BC000570701D50AF002FB0DF11F00FFF7B8FC13
:102BD0009DF91F202B6802922A7B42330192FF222B
:102BE0000092062221466868C1E7424D2B6893F89F
:102BF0005420560737D56968CA79002A33D042680D
:102C000093F85B001678864255D1567893F85C00AD
:102C1000864250D1967893F85D0086424BD1D678A3
:102C200093F85E00864246D1167993F85F0086429B
:102C300041D1507993F8602090423CD1627C93F866
:102C40005A00101A4242424193F8560001284ED0D1
:102C5000002A4CD193F84C30082B02D04A799A4282
:102C600045D00AF0B3FA6E68B379002B3DD02F68D7
:102C700097F85420930720D50DF11F00FFF760FC53
:102C80009DF91F3030460022029321462B7B019391
:102C9000FF23009307F142030EF0A2FF0123092056
:102CA0002B746B68DA79002A85D19B79002B82D14D
:102CB0000AF08CFA5DE70022C6E7D60715D5500763
:102CC00001D50AF083FA0DF11F00FFF739FC9DF9D9
:102CD0001F202B68214602922A7B42330192FF2259
:102CE0000092002268680EF07BFF0320D9E70A20DB
:102CF000D7E700BFA0840120644D81682A68807CEA
:102D00000EF0F3FC92F854306E68074692F8489043
:102D1000590796F806A096F807B089F0010940F126
:102D20008E8092F84B30002B00F0898092F84C6036
:102D3000082E00F08680304603F0E0F949EA0000F2
:102D40005FFA80F9002F7ED03046A16803F00CFBBB
:102D500006462B6893F8542093F84180520749D5D2
:102D6000626893F85B10107888426ED1507893F8BF
:102D70005C10884269D1907893F85D10884264D1E4
:102D8000D07893F85E1088425FD1107993F85F1085
:102D900088425AD1517993F86020914255D1627C92
:102DA00093F85A10501A42424241696849790829F9
:102DB0004DD093F84C30591A4B424B41002E48D11C
:102DC000B9F1000F47D02046CDE90423FFF7A6FA5A
:102DD000DDE90423BBF1000F0AD0296891F85610F1
:102DE00001294ED021B9002A4BD108B1002B4AD17C
:102DF0000AF0ECF92B6893F854309B073FF4B9AE16
:102E00000AF0E4F9BAF1000F3FF4B3AE2046FFF741
:102E100085FAD5F8009000B9FEB10DF11F0048EA1F
:102E20004608FFF78DFB9DF91F3002932B7B019322
:102E30005FFA88F30093012209F14203D2E6767922
:102E400076E7002685E73E4683E70022ADE70023CC
:102E5000B4E70120BEE73046BCE799F85530023BA5
:102E6000012B3FF686AE002F3FF483AE0DF11F001D
:102E7000FFF766FB9DF91F3002932B7B0193FE2326
:102E8000D8E70028B4D00A2095E600BFA08401202E
:102E900030B58BB00546FFF739FA114B1B6893F834
:102EA000543013F0060F04D001229621002013F0B5
:102EB000C1F82C786946284604F00F0422460EF02B
:102EC000B4FE002221466846FFF752FD21466846BF
:102ED000FFF722FE0446FFF7A9FB20460BB030BDEA
:102EE000A084012038B5154D2C6894F84830F3B112
:102EF0006FF00043D4E920129A4208BFB1F1FF3FBE
:102F000015D013F031F9D4E92023904299410ED322
:102F10002B6893F848305BB92D6803F02FF904460D
:102F200013F022F9064BE4FB0301C5E9200138BD8B
:102F3000012003F0E5F90028F9D0EDE7A084012095
:102F400040420F0010B50446FFF722FA237A032B04
:102F500004D140F62E113220FDF750FC0BB9FFF7DB
:102F6000B1F9064B1B6893F958000AF075F8FFF7A2
:102F7000E5FBBDE81040FFF7B5BF00BFA08401200E
:102F80002DE9F8436A4D002307468946A868D5F81D
:102F90000080037043700AF041FA064630B90026FB
:102FA000032003F089FC3046BDE8F883AC68032FAA
:102FB000237833D123F00F0343F0030323700C2352
:102FC0006370D8F87830A868C0F80930B8F87C3059
:102FD000A0F80D3098F87E1010F00DFE0021A868C2
:102FE00013F035F82B6893F8482003F1420993F861
:102FF0004180002A77D14C4623684146A868C0F832
:103000000330A388A0F8073010F0ECFD494BD3F84B
:103010000C32002B7CD00AF0D9F8C0E723F02F0344
:10302000222243EA4913627043F0050323702B68A0
:103030001A6DD2F8CC20C4F80F201A6DD2F8D43013
:10304000190AE3741B0C2175637592F82A11B2F802
:10305000DC30002941D06420B3FBF0F3A375D2F833
:10306000D83000293CD06421B3FBF1F3E375C3F3FE
:103070000723237692F82911D2F8C80010F013FC28
:1030800029686076000AA0760B6DAC68B3F8D02092
:10309000E276120A2277B3F8D2206277120AA27778
:1030A0009A69C4F81F201B7F94F8242084F82330E9
:1030B0000B6D22F01F0293F8233003F01F0313431C
:1030C00084F8243002F006FD94F8243003F01F0346
:1030D00043EA401384F8243073E740F2E240BBE750
:1030E00040F2E241C0E793F8542052070DD593F81F
:1030F0004B2052B193F84C0003F070F904460028BD
:103100003FF479AF4FF0010876E76B685879F3E741
:10311000052F7FF448AF2B6821681A6DC2F8B410F0
:10312000A188A2F8B8101B6D83F8B3803BE700BFFD
:10313000A084012000A0085010B500210320FFF753
:103140001FFF18B9BDE81040FFF78CBA074C0321E8
:1031500020680EF045FF0028F4D0012108460AF04F
:10316000FDF9636809221A7110BD00BFA084012017
:1031700070B5164C636818680EF030FD064620B92D
:1031800040F261513220FDF739FB63680A220021C9
:1031900020681A7100F0AAFE236805201B6DDD7DF2
:1031A0003378C3F340131D402946FFF7E9FE18B9F1
:1031B000BDE87040FFF756BA042120680EF010FFFA
:1031C0000028F5D023681B6DDD7570BDA08401203B
:1031D000036D10B5044623B940F261313220FDF78A
:1031E0000DFB022207494272B3F8AA304381FF2344
:1031F00080F827304FF6FF73038510F0DAFF0023C5
:10320000236510BD47170100F8B5194F064602F0B7
:10321000E5FB0121B8600020FDF7F0FE054620B96E
:1032200040F685013220FDF7E9FA4FF4C072002123
:1032300013F05DFA01210846FDF7E0FE044620B1D7
:103240004FF4C072002113F052FA7B6913B940F6B3
:103250008F01E7E730460EF03CFB28460EF0B1FE4A
:1032600024B12046BDE8F8400EF0ABBEF8BD00BF6B
:10327000A0840120014B024A5A617047A0840120BA
:103280009C330000036810B523B940F67711322053
:10329000FDF7B4FA044A13606C3353605369BDE818
:1032A00010401B68184700BFA084012008B5044BDC
:1032B000586800F079FBBDE80840FFF7D3B900BFBC
:1032C000A084012038B5044690F8400000F0FD00CD
:1032D00004F14201003818BF012084F8410002F0D7
:1032E000F9FD94F84030023BDBB2012B94BF01237F
:1032F000002384F8483015D802F040FF054612F04C
:1033000033FF094BE5FB030194F84830C4E9200181
:1033100043B1002002F0F4FF20B940F62121322011
:10332000FDF76CFA38BD00BF40420F00014936304E
:1033300010F042BF25170100F1250000A928000068
:103340003D280000FF1801004D23000091260000D9
:103350008718010075180100012300006526000090
:10336000191701003D270000191701001917010066
:103370001917010019170100191701003931000050
:10338000713100001917010019170100912E00007A
:1033900065250000AB1801009D180100452F0000B5
:1033A0004833000050330000583300008C330000D5
:1033B0009433000008B5431EDBB231B1032B08D9AA
:1033C0004FF4EA713320FDF719FA032B02D8034AB0
:1033D000D05C08BD4FF43F710620F4E796B40300BB
:1033E00008B50EF073F8054AD2E84F3F0133DBB25F
:1033F000C2E8413F0029F7D108BD00BFB8840120D1
:10340000024BA0F108015868FFF7EABFB884012019
:103410002DE9F84F1E463C4B0D46934600211A7885
:1034200004689DF828709DF82C809DF930909DF8D7
:1034300034A0016032B9A4F108015868BDE8F84F22
:10344000FFF7CEBF1A2204F1090013F050F901234F
:10345000A372BBF1060F4FD8DFE80BF00433394EEF
:10346000434E3D00E37A23F0130343F01303E3726A
:10347000012304F10E0241462846237547F6FF73E7
:1034800084F81890E38204F10D030EF07BFBE37ADD
:103490005B0736D5BA1E04F11C03012A8BBFAA684C
:1034A00032681168E2618ABFE161B28892889A80CD
:1034B000E7760023237215492046BDE8F84F10F047
:1034C0007BBEE37A23F0150343F01503CFE7E37ADD
:1034D00043F01003CBE7E37A23F0120343F0120327
:1034E000C5E7E27A4AF01A0A22F01B020AF01B0A28
:1034F00042EA0A02E272BBE740F246413320FDF79E
:103500007DF9FF23E376D4E7B8840120113500006C
:103510002DE9F04F05468DB00C4600200121FDF746
:10352000A9FD064620B94FF4F1713320FDF766F985
:10353000A8300EF048FD18B196F85430042B2ED167
:1035400030460EF0BBF950BBB84C04F1080604F14C
:103550000C07AB6A93B92846FFF752FF4FF400738C
:10356000ADF804309DF80430002063F307009DF8A7
:10357000053063F30F200DB0BDE8F08FA96A0B682A
:10358000B142AB624FF000030B704B708B70CB708D
:10359000DFD0B942DDD06068FFF722FFD9E7AF6A1C
:1035A00037B3A34B9F4226D0043B9F4223D007F161
:1035B0003B0A4FF0000802F01FFA8146B8F1000FF5
:1035C00040F0058102A950460EF0C2FBB9F1000F90
:1035D00016D004F10D00EE7A16F0100613D09DF807
:1035E0001860059932460CF0D3FC4FF0010828E032
:1035F00005F1330ADDE74FF001084FF0000ADAE782
:1036000004F11C00E7E7002FEFD09DF80830022BF3
:10361000EBD0014695F83230E522504610F026FCFA
:1036200095F8323006460344504685F8323010F0A3
:1036300015FC95F83280A8EB0000D0F1000848EBAB
:103640000008B9F1000F00F0C680EB7AD90604D467
:103650005B216AE7C8460026F7E713F0040FAA7A51
:1036600095F80DC04FF03E0304F1060105F10E0080
:1036700033D095F81BE0BEF1FE0F2ED123700B2343
:10368000E270A370130184F805C002336370012354
:103690002371D5F80E30C4F8063083888B8084F807
:1036A0000CE0EB69C4F80D302B8CA4F811302B7EA4
:1036B000E3745E4E06F1080A57453BD12379022296
:1036C00005F1280062F3461323710EF077FA022702
:1036D0002846FFF795FE04263FE023700223E270A0
:1036E000A37006F10A0384F805C0534302336370E4
:1036F000D5F80E30C4F8063083888B8026732644B4
:103700002B7E7373EA7A12F0080102D0042323712E
:10371000CFE702F00303032B01D12171C9E7520760
:1037200001D50123F3E7022BF1D00BB90323EEE718
:10373000A421FAE606F10C094F4515D105F1280040
:103740000EF03CFA6A7D6AB92379042662F34613C7
:10375000237102272846FFF753FE8DF804608DF889
:103760000570FFE60026F4E747B3B8F1000F20D05C
:1037700005F1280840460EF021FA39467068FFF737
:103780002FFEAB6A0022534585F8322096D04B4578
:1037900005D12379404662F34613237195E79DF8DE
:1037A0000830022B05D1237923F068030127237108
:1037B00091E72379012262F34613F7E7EE7A16F0D8
:1037C0001006CAD0237967F3461323717FE70028D8
:1037D0007FF440AF06468E2305F12301237006F1E6
:1037E0001803AA7A5343E270221D0233637005F175
:1037F0000B0353F8040B8B4242F8040BF9D195F8F4
:1038000014A095F815B002F035F9C1F340295046DF
:103810004946FFF7CFFD6073BBF1000F04D0494666
:103820005846FFF7C7FDA073E67642E7B88401204B
:10383000C4840120343270B5054692B20C461E464F
:103840000DF00CFE25B1034A5560147456741470C3
:1038500070BD00BFB884012010B5034C60680DF046
:103860001FFE237C237010BDB8840120014B587CBF
:10387000704700BFB884012038B5134D68680DF05B
:1038800015FE044620B940F257113320FCF7B6FF6D
:10389000D5E84F3F013BDBB2C5E8413F0029F7D1F6
:1038A00004F108033422184612F021FF47F6FF7294
:1038B0000121E462E283FF22627584F82320E27C26
:1038C00061F34612E27438BDB884012038B5436A0A
:1038D000044693B90A4D68680DF0E8FD606220B9AE
:1038E0004FF4B8713320FCF789FFD5E84F3F013B17
:1038F000DBB2C5E8423F002AF7D1606A3B3038BDF1
:10390000B8840120036810B504468BB19A6A22B1CD
:1039100040F28D113320FCF771FF596A41B101F17A
:1039200008008342074B08BF22605868FFF758FD24
:10393000216831B1034B08395868FFF751FD002366
:10394000236010BDB884012038B5046805469CB1D9
:103950001349204610F039FC124B00221A735A7397
:103960009A73DA73EFF3108272B6A16A0C3399B9C5
:10397000A362E36202B962B62C68616A49B101F1DF
:1039800008039C4203D0074B5868FFF729FD00232A
:10399000636200232B6038BDE16A0B60E9E700BF7A
:1039A00011350000B884012070B50668044656B38E
:1039B000716A154D41B101F108039E4202D0686859
:1039C000FFF70EFD0023736221684E7DB6B1002320
:1039D0002B726B72AB72EB72EFF3108272B6886A65
:1039E0000A4B40B98B62CB6202B962B62046BDE891
:1039F0007040FFF7A9BFC86A0360F4E70839686838
:103A0000FFF7EEFC266070BDB8840120C084012061
:103A100010B504460246064900F58C7012F0CBFC46
:103A2000224604F5A4700249BDE8104012F0C3BC60
:103A3000CF2001007FB590F8142102F0FF0322B1DE
:103A400040F2A5212120FCF7D9FE0C78039314F055
:103A5000010218BF8D68CDE9013318BF019514F03C
:103A6000040529D004ADCE6805EB820545F80C6C41
:103A7000154680F845514A68124DC0F8C820C0F874
:103A8000F82040F27122A0F8FC20032215F8011B57
:103A90000C420BD004A900EB830601EB8301013338
:103AA00051F80C1CDBB21639C6F8CC10013A12F0F2
:103AB000FF02EBD104B070BD002ADAD140F2BE2182
:103AC000C0E700BFA6B403002DE9F04F04468FB055
:103AD0009B469246BDF86070039112F045FB80460C
:103AE000204604910EF081F9D4F8CC900546BBF144
:103AF000000F00F0D781BAF1000F00F0E480834698
:103B000018F5FA630593049B43F10003069303F051
:103B100075FE064604F1E8003146079003F040FECA
:103B2000D4F8101111B107980EF0A1FABDB1D4F874
:103B3000F050BEB1B0682A46D6E90031C018059BE6
:103B4000009341F10001069B019311F073F9854246
:103B5000034608D240F24D312120FCF74FFED4F845
:103B6000C850E6E73346059AD4F8C8009D18069A6F
:103B700042F10006002F00F0A180BFB242F2107C9B
:103B800029463246E7FB0C1200F2CF773B44B3FBE9
:103B9000F0F34343EB1A66F10000C4E92A12C4E9CA
:103BA0003A300027E319204693F87C110EF002F911
:103BB000D4F8A830D4F8AC105A1B0590069361EBEA
:103BC0000600012A70F100034FF00003C0F2598192
:103BD0009145834100DB914604EB8707D7F8CC7011
:103BE0004F4528BF4F46C4F8DC70BAF1000F05D02E
:103BF000D4E93A23C4E92C56C4E93023059B204676
:103C0000039AC4F8D83004230791C4E92E5653729E
:103C10002A4633460EF0FFF8039B059A18725A6045
:103C2000BBF1000F00F038810123039A079913704C
:103C3000069B049AB3EB080361EB0202012B72F1BD
:103C400000004FF00000C0F21E81A74E9E4290413E
:103C500000DB1E46D4F81031D4F8C890002B40F099
:103C6000178107252046A9FB055A0EF0BEF800284B
:103C700000F00B81D4E92C32ED184AEB0203A84581
:103C8000049A9A410FD2B5EB0805049A63EB02033C
:103C90006FF00102AA424FF000029A4102D3AE42F5
:103CA00028BF2E46B146039BC3F81090059B9F4248
:103CB00034BF002001200FB0BDE8F08F4FF0FF317E
:103CC0006FF0004260E7002838D06FF00043D4E97D
:103CD0002A129A4208BFB1F1FF3F2AD094F844312A
:103CE0002046234493F87C110EF064F818F19802F2
:103CF000049B0546099008A843F100038DF820A015
:103D0000CDE90C2340F20243ADF8283012F059FB04
:103D100010B940F296411FE7D4E92A320C995B1A98
:103D20000D9962EB01025B1B62F10002002AC0F2F6
:103D3000A2804546049E4FF0010B32E7D4E93A26B3
:103D4000D4F8C850A8EB0203AA18B3FBF5F305FB9F
:103D500003F346F100069B18A3EB080246F10006A8
:103D6000972A05D8ED1846F10006D346574619E7BD
:103D700094F87C1120460EF01DF80423D4F8B820E6
:103D80008DF82930D4F8C850099020468DF820A02D
:103D9000D4E93A13521AB2FBF5F26A43521843F1CE
:103DA0000003CDE90C230EF036F829468DF82800E3
:103DB00008A80FF0CDFCDDE90C56D6E751F8042F2A
:103DC000013302F1160CCC459FBF821A0137914492
:103DD000FFB2DAB29645F1D8E319204693F87C1188
:103DE0000DF0E8FF484404EB8703D3F8CC3083425E
:103DF00009D3A3EB0909B9F1000F22DA40F24E41D1
:103E0000AAE6A94667E094F84511D4F8C820B9425B
:103E10000FD901379542FFB208D204EB8703D3F8DC
:103E2000CC3003F1160299461546E4E74FF485615C
:103E300092E69542F7D352009542F4D340F24541C1
:103E40008AE6AD192046D4E92C234BF100060DF08B
:103E500088FFD4F8C8304FF0000B5843D4E93A3209
:103E60001B18204642F10002C4E93A322A46334682
:103E70000DF077FF96E64546049E4FF0010BD146C4
:103E800074E79946A8E60646E4E6D4E93032F3E65C
:103E90004FF0FF352B46F2E6039B83F800B0C3E9F1
:103EA000045603E7BAF1000F7FF42AAED4F8C82015
:103EB00008F19805D4E93A13A8EB0106B6FBF2F62F
:103EC00056437618A5EB060543F10003AA429B462C
:103ED00097D8A5EB0209002394F845E104F1C80145
:103EE0006FF015001F4674E70040420F01292DE9CD
:103EF000F347064605D9022900F099804FF4046182
:103F000050E001F00104D0E92CA708F0B3FF96F8C7
:103F100078818146204641460FF094FC0546404694
:103F200009F0F8FB0246002C3FD0A8F10203DBB2F7
:103F3000022B3AD8534901EB43031B8A15EB0905C1
:103F40002CBF0121002115EB0A0547EB01074E4963
:103F500051F8280000F2E73010444FF47A72B0FBB9
:103F6000F2F02D1A67F10007ED1847F1000710F085
:103F70008AFF5230D6F810812C1A67F10005D8F864
:103F8000C87003F035FC06F1E803834210D03A46CE
:103F9000CDE90045D8E9780110F04CFF874211D2F5
:103FA00040F261312120FCF729FC4FF4FC73C5E796
:103FB00098F8290130B13A46CDE90045D6E93A01F1
:103FC00010F038FF314B1A68D6F81031824293F85E
:103FD0002A110ED9D3F8C8603218C3F8D86089B94D
:103FE00041F66A018842A3F8DC1018D34FF4FA6155
:103FF000D8E751B16422B0FBF2F151430246401AB6
:10400000C3F8D8104FF4FA71ECE740F2E242B0FB8B
:10401000F2F151430246C3F8D810401AE0E71219F2
:1040200045F10005C3E9782502B0BDE8F087D0F876
:10403000103113B940F2DB71B4E700255D7390F8DD
:10404000781183F8201183F82111FF2483F822418D
:104050000339D0F81001012900F1E8008CBF0021DC
:10406000012110F06AF9D6F8100111F053FEC6F8DC
:10407000105186F8164109F005F902B0BDE8F04785
:104080000BF09EBA9AB403007CB70300CC840120E5
:1040900008B50B4B30B101280DD040F6530121205B
:1040A000FCF7ACFB18601A6841F669039A4206D91E
:1040B00040F65C01F3E740F6C4121A60F3E708BD6E
:1040C000CC8401200138C0B2032808B504D94FF4CC
:1040D0003F710620FCF792FB014B185C08BD00BF46
:1040E000B0B403000138C0B2032808B504D94FF4B6
:1040F0003F710620FCF782FB014B185C08BD00BF36
:10410000CDB403000138C0B2032808B504D94FF478
:104110003F710620FCF772FB014B185C08BD00BF25
:1041200030B503000138C0B2032808B504D94FF4F4
:104130003F710620FCF762FB014B185C08BD00BF15
:1041400029B60300014B1868704700BF8485012021
:1041500008B5034610465A1E032A10D84A1E032AE1
:104160000DD8084A012951700CBF00210A21107195
:10417000937091721946FDF787F9002008BD6FF022
:104180001500FBE71E010020074A537A40B143F0B7
:104190000403002953720CBF002307235371704797
:1041A00003F0FB03F5E700BF1E01002040EA4100D9
:1041B000014BD870704700BF1E01002010B50446A7
:1041C0000EF00FF908B9002010BDE0430EF009F918
:1041D0000028F8D0E31683EAA4635A1E1A42F2D0EC
:1041E000E3B25A1E13405A1E1342ECD0A0B210F094
:1041F000E1F90B28E7D8204610F0D8F91828E2D8C2
:10420000A3B2B3EB144F04D184EA142313F0FF1FBD
:10421000D9D0044B6340581E1840003818BF012005
:10422000D2E700BFD6BE898EF0B5070C164BA7F5B6
:10423000AA4203EA9023543A012A20D927F40040E5
:1042400042F6AA22801A18BF0120002216211F243C
:10425000164687EA060562EA0505013511D0DD0339
:1042600001394FEA5303ADB245EA56064FEAC43569
:104270004FEA5404ADB245EA5202EAD1F0BD002043
:10428000E3E70020FAE700BFE0FF3F0070B50D460E
:10429000BDF818400646BDF81410AC421046BDF8F3
:1042A00010201BD8B5F5486F18D8844216D8B0F541
:1042B000486F8CBF0024012496B91A4E367C96B103
:1042C0009CB96FF4506C05EB0C06062E04D86FF405
:1042D00050668619062E08D9204670BD0024EBE7EB
:1042E00096F88160EBE7002CF6D0854217D803FBE7
:1042F0000111B1F5FA7F12DCA2F10A0340F676440F
:104300009BB2A3420BD80EF073F942F210734143F3
:104310005A43B2EB410F8CBF01240024DCE7002498
:10432000DAE700BF90850120304BF0B5B0F86C7033
:104330000C461146DA88B0F86A6085B097421D894C
:1043400028BF1746964228BF16461B2E2ED0B5F51D
:10435000A47F2DD040F6480301AA9D4228BF1D46E8
:104360000EF05AF9BDF80A30BB4228BF3B46E38045
:10437000BDF80C30AB4228BF2B462381BDF8063078
:10438000B34228BF33466380BDF80830AB4228BF34
:104390002B46A380FF232370E3881B3B9BB2E02BBB
:1043A00008D940F209513920FCF728FA1B2FCED149
:1043B00005B0F0BD63881B3B9BB2E02B02D940F2F5
:1043C0000B51F0E7238940F64812A3F5A4739BB282
:1043D000934202D940F20D51E5E7A388A3F5A473F7
:1043E0009BB29342E4D940F20F51DCE79085012063
:1043F000F7B5002304460E461746CDE9003368465C
:10440000FCF772FE08B100201AE0009DA542F6D02C
:10441000304605F1AD030EF0CBF8394695F8AC20E7
:104420000FF041F90028EAD005F1B40395F8B32064
:1044300004F1B40194F8B3000FF035F90028DED090
:1044400003B0F0BD054A516A02F11D03127F11F855
:10445000030BC0F380100FF026B900BF008B0120C2
:10446000012817D80D48824216D8012B0DD140F2F1
:1044700052739A4210D9A1F6C410094B98420BD836
:104480008A428CBF122000207047042BF3D140F6E3
:10449000C313EEE712207047302070478FFD700283
:1044A000CBF3700210B504460A480DF038FB0A49F8
:1044B0002046FFF7BFFA20460DF061FA38B12046DA
:1044C000FEF700FF20460DF027FB002010BD122054
:1044D000FCE700BFC8850120D08501202DE9F04F01
:1044E000994687B07F4B04460DF110087E4D186841
:1044F0000F461B791646049088F8043095F86A3008
:1045000013B1404601F0D0FF394620460FF010FAB3
:10451000AB69C4F8E83096F84A2006EB4202B2F8DC
:104520002AA050460EF064F801466FF45060002354
:104530008244BAF1060F7BD9908C4FF0961284F822
:104540002A31A4F8E430C4F8E02040F2E2420EF050
:104550004FF803F099F940F2E243014604F1A80A4A
:10456000A4F8F431C4F8C810C4F8F011504611F0A2
:10457000A7FB834601F07EFA8306A97B53BF1B236A
:104580006B88AA881A46A4F81231584BA4F8142153
:104590001B6884F8F010A4F8F2B01BB194F928114C
:1045A000384698472B7C03A80394003B18BF01238F
:1045B00084F829310DF013FF4D4B1B681BB14D4999
:1045C000B4F8AA0098470123A4F8DE304A4B1B68D0
:1045D0001BB14A49B4F8AA009847494B1B681BB164
:1045E0004849B4F8AA009847474B1B6813B1B4F880
:1045F000AA009847454B1B6813B1B4F8AA00984726
:10460000AB8804F1C0006A886978033303320191F2
:104610009BB2297892B2009104F1C401FCF79CFD91
:10462000D4F8C03083B940F6F4713920FCF7E6F8CD
:104630004FF04D12A4F8E4300123C4F8E02084F8D0
:104640002A314FF47A7389E7D4F8C43013B940F6AD
:10465000F571EAE70DF08CFFC4F8CC00B9F1000F5A
:1046600005D002F097F920F07F40C4F8D40096F806
:104670004A302046E96906EB4306338EA4F8D03071
:10468000F38EA4F8D23011F018FB414604F1170064
:104690000FF0FEF995F86A3013B9FF2384F83D3224
:1046A000EB6E23B1012204F59771504698471849E3
:1046B00050460EF0B4FD02F06DF90C23B0FBF3F29E
:1046C00002FB1300C0B2431DDBB2082B9CBF0D30B0
:1046D000C3B2204684F823300FF059F907B0BDE883
:1046E000F08F00BFB0F2050090850120609001209E
:1046F00058900120B885012070900120EE8501209E
:1047000064900120E0850120689001206C900120D8
:104710009A85012010B503210020FCF7ABFC04466C
:1047200070B90321FCF76AFC044620B940F2253138
:104730003920FCF763F8034B93F9701010F010FF69
:10474000204610BD90850120014B5888704700BF5E
:1047500090850120044BD87BC0F3400080F001001D
:1047600000F00100704700BF9085012038B50EF0C1
:1047700099FF002501F0CEFC214C01F093F90FF0D8
:10478000F9FC02F0B1FF01F0AFFE07F0D9FE012005
:1047900001F02CF91B4B1C4A29461D604FF01B13DE
:1047A000A4F86850A58184F83650E573C4E9002365
:1047B0004FF4A4731022A3604FF479432361134B89
:1047C00058681B89A06304F14000A38711F08FFF94
:1047D000012342F2107204F15E0084F840306375E8
:1047E000C4E9112211F0C9FB04F1500011F0EBFBF8
:1047F0000022002384F88050C4E91E2338BD00BF86
:10480000908501205090012003021B00CDB40300CD
:10481000064B41F64C521B211A629973C3E90622DA
:1048200041F288325A62FFF7A1BF00BF9085012094
:10483000F0B53D4D85B000F1A8070446AB69C0F85E
:10484000E8302B7C003B18BF012380F82931374B1F
:10485000C0F8C830384610F08FFC064601F00AF95F
:104860008306A97B53BF1B236B88AA881A46A4F82A
:1048700012312F4BA4F814211B6884F8F010A4F80F
:10488000F26023B194F92811B4F8AA00984703A85C
:1048900003940DF0A4FD274B1B681BB12649B4F807
:1048A000AA009847254938460EF0B9FC0123A4F820
:1048B000DE30234B1B681BB10021B4F8AA009847D7
:1048C000204B1B681BB10021B4F8AA0098471E4B6F
:1048D0001B6813B1B4F8AA0098471C4B1B6813B1AE
:1048E000B4F8AA009847AB8804F1C0006A886978D8
:1048F0000333033201919BB2297892B2009104F103
:10490000C401FCF729FCD4F8C03023B940F2E241DD
:104910003920FBF773FFD4F8C43013B940F2E341F8
:10492000F6E705B0F0BD00BF9085012000093D000D
:104930006090012058900120B88501209A850120BF
:104940007090012064900120689001206C900120FB
:104950002DE9F34104460E4610F043FE002800F016
:104960009680204610F075FF40B1B6F80130013B4B
:104970007F2B03D9122002B0BDE8F081204610F051
:104980006CFF08B90C20F6E7204610F0ACFC0028BC
:10499000F8D1204610F0CEFD80460028F2D1204606
:1049A00004F0A4FC0028E5D042F21073B6F80170C0
:1049B000F17820465F4310F037FF04213078FCF790
:1049C00059FB054606213078FCF754FB2DB140B168
:1049D00041F676213920FBF711FF18B3054690F810
:1049E000E5802C4E3368EBB14035284610F019FABB
:1049F000C0B1284610F006FAA0B9B8F1000F07D0F0
:104A0000254B28461B68984760B141F68A21E1E7AB
:104A10002249424633682846096A984710B141F650
:104A20008F21D7E7204610F00CFF014638B93A46EF
:104A3000204603F055FC40B341F69821CAE7022115
:104A40000DF10600FCF7A2FA054608B90D2092E721
:104A5000BDF806100EF0AAFF2946204610F02DFFE3
:104A60002846FFF7E5FE3A462946204603F038FC83
:104A7000024610B141F6B421ACE7084BDB6E23B11E
:104A800005F5977105F1A8009847002073E74220CB
:104A900071E700BF549001205C90012090850120B7
:104AA000024B1B6803B118470C207047509001203F
:104AB000014B93F97000704790850120034B5A8891
:104AC00002801B7883700020704700BF9085012012
:104AD00073B5837806461A2B08D8042B04D9334AB9
:104AE00022FA03F3DB0705D412251AE0292B01D0A3
:104AF0003B2BF9D13088B0F5706FF5D269460EF0D6
:104B0000E6FE88B9009B93F82C2102F0FF05C2B99C
:104B1000B27883F82D21FF2283F82C2168460DF00E
:104B2000D0FE284602B070BD09213088FCF7A2FAF9
:104B30000446002837D001A9B0F8AC010EF0C7FE3A
:104B400008B10C25EDE70821B4F8AE01FCF792FAA4
:104B500020B94FF404613920FBF750FE03781BB9EC
:104B600094F8C831032BECD1019B93F84221002A21
:104B7000E7D194F8F02102F0FF05002AE1D1B4F862
:104B8000B021A3F8442194F8B82183F84621027D8E
:104B900083F84721B27883F8482184F8F021FF2276
:104BA00083F84221BDE70225BBE700BF200038049F
:104BB0000188A1F11B039BB2E02B0CD8428844F280
:104BC0004810A2F5A4739BB2834204D8034B002083
:104BD000D9801A8170471220704700BF908501204C
:104BE00038B50278447802F0010302F0020254EA78
:104BF000030101D1112038BDBAB98578002DF9D053
:104C0000002B18BF002400E01D4620460DF05EFD7D
:104C10000028EFD028460DF059FD0028EAD0054BBA
:104C200000209C72DD729881E5E7002BECD0002417
:104C30002546EAE79085012013B5008801A90EF00A
:104C400068FE044620B9019890F83E311BB13A2421
:104C5000204602B010BD90F85C3003F0FF04002B3A
:104C6000F5D190F853309B0706D1FF2380F83E31F1
:104C700001A80DF026FEEBE7024954300FF0A2FA2E
:104C8000E6E700BF674D01002DE9F04703780446D1
:104C9000032B03D912252846BDE8F0874378032B60
:104CA000F8D8437E8578002B4FD1012DF2D100F04A
:104CB000EBFE854340F0928094F8028018F00105E5
:104CC00006D001232269A168E078FFF7C9FB0546F9
:104CD00018F0020F07D002232269A168E078FFF7DD
:104CE000BFFB2843C5B218F0040F7BD094F803A093
:104CF0000423D4F80890226950464946FFF7B0FBD8
:104D0000284310F0FF05C6D1B8F1050F0ED194F875
:104D100004800423E16862694046FFF7A1FB054671
:104D20000028B8D1C24559D1894557D1237E013BCE
:104D3000062BAFD801210020FCF79CF9054650B99D
:104D400040F642413920FBF759FD6B1E062BA1D8D6
:104D5000AA079FD4ABE7A8300DF035F918B195F844
:104D600054309B073CD1657EE278003DA078A16875
:104D700018BF0125012AB4F800E000F0040314BFB5
:104D8000B2FA82F2022294F818C018BF520910F049
:104D9000010F1FD026695BB16769F319994207D2E9
:104DA0004B089E4228BF1E468B1B9F4228BF1F46B2
:104DB0000E4B83F83D50002583F8380083F83920E6
:104DC000A3F83AE083F83CC083F84000DF64C3E90D
:104DD000111660E7002BEBD02769E9E711255AE7A8
:104DE0000C2558E7002DA1D055E700BF9085012084
:104DF00000B589B0437940F271218DF80430837990
:104E00008DF8053001238DF8063003788DF80730D2
:104E1000B0F801304B430393B0F803204A430D49E7
:104E200091F83C100592A2F6C4128DF81C100021D6
:104E30008DF81D1008498A4209D8A3F6C4138B4285
:104E400005D801A8FFF720FF09B05DF804FB30206A
:104E5000FAE700BF908501203C369C002DE9FF4118
:104E600006460078012813D17378012B03D9022B51
:104E70000CD1B38853B17288B2B1B388A3B10A21FF
:104E80004A434FF4A0614B439A420DDB12247AE06F
:104E90000028FBD10121FCF7EDF80546002840F081
:104EA0008E8040F69A5107E001210020FCF7E2F8DD
:104EB000054620B940F63F513920FBF79FFCB388E7
:104EC000002B76D10CF0FAFC002874D195F814313F
:104ED000002B72D12846FFF7E5FA04460028D5D109
:104EE0000121DFF830810846FCF7C4F898F8141067
:104EF000074619B110B940F65B51DDE798F8382044
:104F00000023CDE9023312F001031CBFD8F848009A
:104F10000290520741BF04AA02EB8303D8F84C2049
:104F200043F8082C002941D097F81431002B3DD0CC
:104F30007388DBBB98F838303846009302ABD8F85A
:104F4000442098F83A100CF091FD78B338460DF0F3
:104F500040F807F14003064605F14002683753F870
:104F6000041BBB4242F8041BF9D12846FFF79AFA0A
:104F7000024610B140F682519EE70C2E07D1014641
:104F800028460DF0D9F9204604B0BDE8F08116B1ED
:104F900040F68B5190E798F839302846296D43F058
:104FA000040385F854300DF0A6F9ECE7B288718857
:104FB000E6E71124E7E73A24E5E70C24E3E70CF001
:104FC000B3FF04460028DED195F8543095F8A620AA
:104FD00022B195F8A720134385F8A600053B012BC5
:104FE000D1D82B6D13B940F6AA5165E701210846C7
:104FF000FCF740F84FF4C072294606460AF0C8FF95
:10500000002386F894300423316D304686F85430FE
:10501000C9E700BF908501202DE9F04F457A04468D
:105020008FB0A80718D545F001056572072D15D872
:1050300000F02AFD35EA000040F0588194F848302D
:105040008BB9012D0AD1A369A94AA3F253739342E4
:1050500000F24A81012609E06907E7D112242046BF
:105060000FB0BDE8F08F15F00106ECD1AA0745BFDF
:10507000731CB1464FF0FF09DEB26B070AD5B31DB2
:105080009C4A54F82330A3F6C413934200F22C81B7
:105090000136F6B204F1080704F122054FF00008CA
:1050A0005FFA88F39E422BD823789A1E022A40F298
:1050B0001D81012BD2D813B9A378012BCED86378E8
:1050C000032BCBD894F84930013B062BC6D88A4F26
:1050D00001210020FBF7CEFF3B7D0546002B4CD184
:1050E00001210846FBF7C6FF002818BF054605F159
:1050F000A8000CF068FF0646002858D00C24AEE744
:10510000994535D0D7F804A03B695345A6D86A8B9A
:105110002B8C9A42A2D8B5F814B001204FF0060C9F
:1051200069882A89EB89CDF800B00591CDE9010C99
:105130000020CDE90623FFF7A9F8002800F0D4806D
:10514000B8F1000F14D028880599884286D1E988E3
:10515000069A914282D1AA89079B9A427FF47EAF38
:105160006B8A5B457FF47AAF3B689A4540F0BE801E
:1051700008F101080437023592E7A8300CF023FF4C
:105180000028ADD06FF00043D5E92A129A4208BF3B
:10519000B1F1FF3FA4D1637A2846009304F11803CC
:1051A000E26861780CF062FC0646002898D0284638
:1051B0000CF08AFB08B13A2451E728460CF07EFB3C
:1051C0000028F8D1FB7C4BB90AAF0A937B60062319
:1051D0008DF82E303846FBF787FF68B300210DF1BC
:1051E0002600FBF7D3FE074600287BD0012322468A
:1051F000BDF82610FFF772F9384610F076FD1EB99B
:10520000617828460CF0EDFB04F10308A2782178C0
:10521000284643460CF092FB00286FD1122400214F
:10522000B7F8AA00FBF73CFF00283FF418AF41F2A3
:1052300088213920FBF7E2FA0A9B93F8CD20802AD7
:10524000C8D093F8E530002BC4D057E7637A8DF8C7
:10525000286013F00102E16818BFA0690B911EBF1E
:105260000C9001208DF828009E0744BF0132D2B275
:1052700058071BD59DF82800063203F0050354F8A3
:10528000222040F00400052B0D928DF828000DD14E
:105290000C981318994209D24B08834228BF034641
:1052A000C91A0C93914294BF0D910D920AA92846F8
:1052B000FEF7C0FB94F848102846003918BF0121BA
:1052C0000CF039FB94F8491028460CF01AFB2846DC
:1052D0000CF022FC394628460DF00DF80024BEE6FD
:1052E0000B249CE70D24BAE63024B8E61124B6E678
:1052F0003CF67002CBF370029085012016B9284667
:10530000FDF7E0FF21784346A27828460CF076FBB3
:1053100094F8099000F0B8FB09EA0001284601F072
:1053200005010CF0F1FA16B9042385F854302F6505
:105330004246A0780DF03CF9014628460CF079FB76
:10534000237833B94246A1783846FFF751F8002850
:10535000C6D1002E3FF47AAF042128460CF018FB8A
:105360000028BBD10C245AE710B5437994B0032B25
:1053700057D823F00203027940F271218DF80630EC
:10538000D0F806308DF80420CDF807304389027B31
:10539000ADF80B3001238DF805208DF80D30038812
:1053A0004B43049342884A430792A2F6C412847B7B
:1053B000417B41EA0421ADF82810047CC17B41EA1D
:1053C0000421ADF82E10847C417C41EA0421ADF823
:1053D0003410047DC17C41EA0421ADF83A10417DCE
:1053E000847D41EA0421ADF84010C17D007E41EA90
:1053F00000210E48ADF8461000218DF84C108DF8B4
:105400004E100B4990F83C008A428DF84D000AD8A6
:10541000A3F6C4138B4206D801A8FFF7FDFD14B014
:1054200010BD1220FBE73020F9E700BF9085012076
:105430003C369C0073B506230025CDE900558DF858
:1054400006306846FBF750FE08B1002610E0009DCC
:1054500095F8CD30802BF4D095F8E560002EF0D093
:1054600095F83131002BECD195F8CC30002BE8D1F8
:1054700001210020FBF7FEFD044620B941F2BB21CB
:105480003920FBF7BBF9A8300CF09DFD224B1B7DAA
:1054900073B3E0B194F85430053B012B17D8204684
:1054A0000CF097FD054610B141F2C621E8E7204611
:1054B000FDF78EFE94F854302A46294623F0040363
:1054C000204684F854300CF037FF00250DE0012110
:1054D0000846FBF7CFFD044610B941F2D221CFE7D1
:1054E000A8300CF070FD60B90C25284602B070BDE4
:1054F00028B9002EF8D0FF2385F8CC30E5E7002E40
:10550000F9D120460CF065FD05460028EDD1204676
:10551000FDF75EFEE9E700BF90850120F7B506784C
:1055200004460F46EF2E03D91226304603B0F0BDD5
:1055300090F901204378002AF6DB82789207F3D1B4
:1055400013F010001DD19D0603F0030216D5002AAA
:10555000EAD11907E8D42179E278E57942EA012213
:10556000617942EA0142A17941EA0521257A41EABD
:1055700005418A42D8D81F2A12D8D5E7032AE8D194
:10558000D2E713F0600FCFD103F00702052A05D050
:1055900003F00F010D22CA40D207C5D51D07DAD589
:1055A000627A013A062ABFD8A27A032ABCD813F03D
:1055B000040302D1023A012A03D8E27A012AB3D8BD
:1055C00013B9A37C032BAFD8237DF8B1012BABD14A
:1055D000237E012BA8D818B36378D90702D500F031
:1055E000A5F920B36378227D03F01803082B2ED190
:1055F000022A1CD103213046FBF73CFD054660B36F
:105600000FF071FE002834D00C268EE7022B8BD0D1
:10561000A37D013B022B87D8E37D0F2BD8D983E7ED
:1056200000F032FA820707D4237D022B01D1112624
:105630007BE7A37D022BFAD000F026FA4307CBD4F8
:10564000237D032BF3D0A37D032BC5D1EFE7022AE3
:10565000D0D0237F002BCDD0E9E703213046FBF7E4
:10566000CDFC0546002843D0224B93F970100FF073
:1056700077FF0021304610F05AFC28BB284610F076
:10568000DDF821463870E07428460FF0D8FFE37E3D
:105690000646002B3FF449AF00287FF446AF024690
:1056A000E96C6846FBF738FE3246E86C01210BF0E6
:1056B00049FFE96C68460422FBF72EFE324631466C
:1056C000E86C0BF03FFF30E740300FF0AAFB0028FA
:1056D000D4D0637813F0330F7FF426AFA67D28462D
:1056E000296A10F0C9F8FEF7FDFC8642C6D08BE7A8
:1056F00007261AE79085012030B502798BB0034662
:10570000042A4FD84088B0F5804F4BD82649002452
:105710001144ADF800408DF808408A7C4D7B42F082
:1057200010028DF8244042EA4502CD7D097F42EA0D
:10573000850242EAC102694602F01F028DF800208C
:10574000BDF80020ADF809201A888DF80E00000A77
:105750008DF80B20120A8DF80D408DF80C208DF875
:105760000F008DF810405A7BD3F807008DF81120F8
:105770005A79059002A88DF812209A798DF8132095
:10578000B3F80B209B7BADF818208DF81A307F23DF
:105790008DF81B304FF00113CDE90734FFF7BEFE43
:1057A0000BB030BD1220FBE7CDB4030002780346F6
:1057B00072B1427862B142881A2A09D982881A2ABB
:1057C00006D90068034A106000209B8893807047C8
:1057D000122070479085012002680020014B9A61D9
:1057E000704700BF9085012002680020014BDA61FC
:1057F000704700BF908501200378A3F10A02112AA7
:105800009BBF024A002012209373704790850120AD
:105810000378FF2B15D14378FF2B12D18378FF2B10
:105820000FD1C378FF2B0CD1037923F0E0021F2A9C
:1058300007D11F2B05D05B09034A002082F83C30BA
:1058400070471220704700BF90850120014B5874AB
:105850000020704790850120014B9874002070470C
:1058600090850120024B1B6803B118471120704737
:105870007490012008B5052000F0C4F810F01FFB5B
:10588000014B024ADA6608BD9085012029430000D9
:1058900008B5052000F0B6F805F09AF9014B024A68
:1058A000DA6608BD908501202943000008B5012271
:1058B000054B1A7103F004FD04F02CFB0DF070FC95
:1058C000BDE8084000F000BF1486012010B5064C6A
:1058D000064904F108000DF0F6FB04F10C00044940
:1058E000BDE810400DF0EFBB14860120D000002071
:1058F000D800002010B5094C094904F108000DF04A
:10590000E2FB04F10C0007490DF0DDFB04F110008F
:105910000549BDE810400DF0D6BB00BF148601203C
:10592000E0000020E8000020F0000020014B187982
:10593000704700BF1486012010B50A4C072000F004
:1059400061F8094904F108000DF0BDFB04F10C00F9
:1059500006490DF0B8FB04F110000549BDE8104000
:105960000DF0B1BB14860120F800002000010020DA
:105970000801002038B5074C0D4600F079FEA068FC
:1059800025600DF098FBFEF743FF01F01BF80123A3
:10599000237538BD14860120014B187D704700BF68
:1059A0001486012010B50C4CE0680DF084FB2069D2
:1059B0000DF081FBFEF7DAFE202000F037F82F20F3
:1059C00000F034F8262000F031F8292000F02EF8FD
:1059D0000023237510BD00BF1486012000487047C6
:1059E00029860120004870472B870120014B83F84E
:1059F0001902704714860120014B93F81902704771
:105A000014860120C208074900F0070001238340E3
:105A1000885C03438B5404490B78934238BF134688
:105A20000B707047780000202E8801200F4B012159
:105A300010B503EBD002C40800F0070001FA00F033
:105A4000195D21EA0001195509490B78A34205D1D6
:105A5000002012F8014914B100B10B7010BD002BE9
:105A6000FAD0013B0120DBB2F3E700BF7800002051
:105A70002E880120014BD3E90001704778000020F7
:105A80000048704780000020054B1868C0F3C02212
:105A9000C0F30020400040EA820040F0010070475F
:105AA0007800002008B508F041FE0023074A32F8CC
:105AB0002310814205D302EB83029378044A1370CA
:105AC00008BD01330C2BF2D10023F7E700B503002A
:105AD0002F880120024B1878072828BF072070471D
:105AE0002F8801202DE9F04F046898460F4685B0B5
:105AF00094F86330164604F1A80994F80FA043EA1D
:105B0000D303D90702D4BAF1260F5FD194F8A85075
:105B1000002F55D1FFF7B8FF8DF80B00002E51D1A3
:105B2000FFF7B2FF2B4B8DF80C00D3F800B0BBF1A0
:105B3000000F0CD0AAF12602284649465342534191
:105B40000DF10B02009303ABD847054630B99DF821
:105B50000B3013B19DF80C0028B90925BAF1260FB6
:105B60002AD10020034694F8292132B19B0700F086
:105B700002002DD560B302200346FF2284F83921AC
:105B800094F8382102F0FF05F2B99DF8382003A9F6
:105B900084F83B01484684F8382184F83A31A4F867
:105BA0003C818DF80C708DF80D60ADF80E800DF015
:105BB00036FB002384F83931284605B0BDE8F08F64
:105BC0003846A9E73046ADE73A25F2E71A25F3E76C
:105BD0000925F1E77890012010B50468B4F8AA30DF
:105BE00084F88411A4F8853194F82001FEF78AFA2C
:105BF00084F8870194F82101FEF784FA044984F8B7
:105C0000880104F27B10BDE810400EF0DBBA00BF43
:105C1000E531010030B5C1F30722CCB2164985B099
:105C2000C5B2C0F307230978019049B9114620464F
:105C30000DF0E3FA20B9194628460DF0DEFAB0B1AE
:105C40002B40234002EA030001460CF0C4FC04464A
:105C500008460CF0C0FC032C04D1BDF80630012B23
:105C600008BF0424E4B244EA002005B030BD05EAD0
:105C7000020003EA0401E8E7308801202DE9FF472C
:105C800004688946054694F80EA0AAF125035942F6
:105C90005941052A35D1E37B272B37D104F10F0772
:105CA00099F8018099F8026008F0070806F00706E5
